{
  "abi": [
    {
      "inputs": [],
      "stateMutability": "nonpayable",
      "type": "constructor"
    },
    {
      "anonymous": false,
      "inputs": [
        {
          "indexed": true,
          "internalType": "address",
          "name": "owner",
          "type": "address"
        },
        {
          "indexed": true,
          "internalType": "address",
          "name": "approved",
          "type": "address"
        },
        {
          "indexed": true,
          "internalType": "uint256",
          "name": "tokenId",
          "type": "uint256"
        }
      ],
      "name": "Approval",
      "type": "event"
    },
    {
      "anonymous": false,
      "inputs": [
        {
          "indexed": true,
          "internalType": "address",
          "name": "owner",
          "type": "address"
        },
        {
          "indexed": true,
          "internalType": "address",
          "name": "operator",
          "type": "address"
        },
        {
          "indexed": false,
          "internalType": "bool",
          "name": "approved",
          "type": "bool"
        }
      ],
      "name": "ApprovalForAll",
      "type": "event"
    },
    {
      "anonymous": false,
      "inputs": [
        {
          "indexed": true,
          "internalType": "address",
          "name": "from",
          "type": "address"
        },
        {
          "indexed": true,
          "internalType": "address",
          "name": "to",
          "type": "address"
        },
        {
          "indexed": true,
          "internalType": "uint256",
          "name": "tokenId",
          "type": "uint256"
        }
      ],
      "name": "Transfer",
      "type": "event"
    },
    {
      "inputs": [
        {
          "internalType": "address",
          "name": "to",
          "type": "address"
        },
        {
          "internalType": "uint256",
          "name": "tokenId",
          "type": "uint256"
        }
      ],
      "name": "approve",
      "outputs": [],
      "stateMutability": "nonpayable",
      "type": "function"
    },
    {
      "inputs": [
        {
          "internalType": "address",
          "name": "owner",
          "type": "address"
        }
      ],
      "name": "balanceOf",
      "outputs": [
        {
          "internalType": "uint256",
          "name": "",
          "type": "uint256"
        }
      ],
      "stateMutability": "view",
      "type": "function"
    },
    {
      "inputs": [
        {
          "internalType": "uint256",
          "name": "tokenId",
          "type": "uint256"
        }
      ],
      "name": "getApproved",
      "outputs": [
        {
          "internalType": "address",
          "name": "",
          "type": "address"
        }
      ],
      "stateMutability": "view",
      "type": "function"
    },
    {
      "inputs": [
        {
          "internalType": "address",
          "name": "owner",
          "type": "address"
        },
        {
          "internalType": "address",
          "name": "operator",
          "type": "address"
        }
      ],
      "name": "isApprovedForAll",
      "outputs": [
        {
          "internalType": "bool",
          "name": "",
          "type": "bool"
        }
      ],
      "stateMutability": "view",
      "type": "function"
    },
    {
      "inputs": [
        {
          "internalType": "address",
          "name": "_to",
          "type": "address"
        }
      ],
      "name": "mint",
      "outputs": [],
      "stateMutability": "nonpayable",
      "type": "function"
    },
    {
      "inputs": [],
      "name": "name",
      "outputs": [
        {
          "internalType": "string",
          "name": "",
          "type": "string"
        }
      ],
      "stateMutability": "view",
      "type": "function"
    },
    {
      "inputs": [
        {
          "internalType": "uint256",
          "name": "tokenId",
          "type": "uint256"
        }
      ],
      "name": "ownerOf",
      "outputs": [
        {
          "internalType": "address",
          "name": "",
          "type": "address"
        }
      ],
      "stateMutability": "view",
      "type": "function"
    },
    {
      "inputs": [
        {
          "internalType": "address",
          "name": "from",
          "type": "address"
        },
        {
          "internalType": "address",
          "name": "to",
          "type": "address"
        },
        {
          "internalType": "uint256",
          "name": "tokenId",
          "type": "uint256"
        }
      ],
      "name": "safeTransferFrom",
      "outputs": [],
      "stateMutability": "nonpayable",
      "type": "function"
    },
    {
      "inputs": [
        {
          "internalType": "address",
          "name": "from",
          "type": "address"
        },
        {
          "internalType": "address",
          "name": "to",
          "type": "address"
        },
        {
          "internalType": "uint256",
          "name": "tokenId",
          "type": "uint256"
        },
        {
          "internalType": "bytes",
          "name": "data",
          "type": "bytes"
        }
      ],
      "name": "safeTransferFrom",
      "outputs": [],
      "stateMutability": "nonpayable",
      "type": "function"
    },
    {
      "inputs": [
        {
          "internalType": "address",
          "name": "operator",
          "type": "address"
        },
        {
          "internalType": "bool",
          "name": "approved",
          "type": "bool"
        }
      ],
      "name": "setApprovalForAll",
      "outputs": [],
      "stateMutability": "nonpayable",
      "type": "function"
    },
    {
      "inputs": [
        {
          "internalType": "bytes4",
          "name": "interfaceId",
          "type": "bytes4"
        }
      ],
      "name": "supportsInterface",
      "outputs": [
        {
          "internalType": "bool",
          "name": "",
          "type": "bool"
        }
      ],
      "stateMutability": "view",
      "type": "function"
    },
    {
      "inputs": [],
      "name": "symbol",
      "outputs": [
        {
          "internalType": "string",
          "name": "",
          "type": "string"
        }
      ],
      "stateMutability": "view",
      "type": "function"
    },
    {
      "inputs": [],
      "name": "tokenId",
      "outputs": [
        {
          "internalType": "uint256",
          "name": "",
          "type": "uint256"
        }
      ],
      "stateMutability": "view",
      "type": "function"
    },
    {
      "inputs": [
        {
          "internalType": "uint256",
          "name": "tokenId",
          "type": "uint256"
        }
      ],
      "name": "tokenURI",
      "outputs": [
        {
          "internalType": "string",
          "name": "",
          "type": "string"
        }
      ],
      "stateMutability": "view",
      "type": "function"
    },
    {
      "inputs": [
        {
          "internalType": "address",
          "name": "from",
          "type": "address"
        },
        {
          "internalType": "address",
          "name": "to",
          "type": "address"
        },
        {
          "internalType": "uint256",
          "name": "tokenId",
          "type": "uint256"
        }
      ],
      "name": "transferFrom",
      "outputs": [],
      "stateMutability": "nonpayable",
      "type": "function"
    }
  ],
  "bytecode": {
    "object": "0x608060405260006006553480156200001657600080fd5b506040518060400160405280600781526020016615195cdd13919560ca1b815250604051806040016040528060048152602001631513919560e21b815250816000908162000065919062000122565b50600162000074828262000122565b505050620001ee565b634e487b7160e01b600052604160045260246000fd5b600181811c90821680620000a857607f821691505b602082108103620000c957634e487b7160e01b600052602260045260246000fd5b50919050565b601f8211156200011d57600081815260208120601f850160051c81016020861015620000f85750805b601f850160051c820191505b81811015620001195782815560010162000104565b5050505b505050565b81516001600160401b038111156200013e576200013e6200007d565b62000156816200014f845462000093565b84620000cf565b602080601f8311600181146200018e5760008415620001755750858301515b600019600386901b1c1916600185901b17855562000119565b600085815260208120601f198616915b82811015620001bf578886015182559484019460019091019084016200019e565b5085821015620001de5787850151600019600388901b60f8161c191681555b5050505050600190811b01905550565b6112ec80620001fe6000396000f3fe608060405234801561001057600080fd5b50600436106100f55760003560e01c80636352211e11610097578063a22cb46511610066578063a22cb465146101f5578063b88d4fde14610208578063c87b56dd1461021b578063e985e9c51461022e57600080fd5b80636352211e146101b45780636a627842146101c757806370a08231146101da57806395d89b41146101ed57600080fd5b8063095ea7b3116100d3578063095ea7b31461016257806317d70f7c1461017757806323b872dd1461018e57806342842e0e146101a157600080fd5b806301ffc9a7146100fa57806306fdde0314610122578063081812fc14610137575b600080fd5b61010d610108366004610e57565b610241565b60405190151581526020015b60405180910390f35b61012a610293565b6040516101199190610ec4565b61014a610145366004610ed7565b610325565b6040516001600160a01b039091168152602001610119565b610175610170366004610f0c565b61034c565b005b61018060065481565b604051908152602001610119565b61017561019c366004610f36565b610466565b6101756101af366004610f36565b610497565b61014a6101c2366004610ed7565b6104b2565b6101756101d5366004610f72565b610512565b6101806101e8366004610f72565b61053b565b61012a6105c1565b610175610203366004610f8d565b6105d0565b610175610216366004610fdf565b6105df565b61012a610229366004610ed7565b610617565b61010d61023c3660046110bb565b61068b565b60006001600160e01b031982166380ac58cd60e01b148061027257506001600160e01b03198216635b5e139f60e01b145b8061028d57506301ffc9a760e01b6001600160e01b03198316145b92915050565b6060600080546102a2906110ee565b80601f01602080910402602001604051908101604052809291908181526020018280546102ce906110ee565b801561031b5780601f106102f05761010080835404028352916020019161031b565b820191906000526020600020905b8154815290600101906020018083116102fe57829003601f168201915b5050505050905090565b6000610330826106b9565b506000908152600460205260409020546001600160a01b031690565b6000610357826104b2565b9050806001600160a01b0316836001600160a01b0316036103c95760405162461bcd60e51b815260206004820152602160248201527f4552433732313a20617070726f76616c20746f2063757272656e74206f776e656044820152603960f91b60648201526084015b60405180910390fd5b336001600160a01b03821614806103e557506103e5813361068b565b6104575760405162461bcd60e51b815260206004820152603d60248201527f4552433732313a20617070726f76652063616c6c6572206973206e6f7420746f60448201527f6b656e206f776e6572206f7220617070726f76656420666f7220616c6c00000060648201526084016103c0565b6104618383610718565b505050565b6104703382610786565b61048c5760405162461bcd60e51b81526004016103c090611128565b6104618383836107e5565b610461838383604051806020016040528060008152506105df565b6000818152600260205260408120546001600160a01b03168061028d5760405162461bcd60e51b8152602060048201526018602482015277115490cdcc8c4e881a5b9d985b1a59081d1bdad95b88125160421b60448201526064016103c0565b6001600660008282546105259190611175565b9250508190555061053881600654610949565b50565b60006001600160a01b0382166105a55760405162461bcd60e51b815260206004820152602960248201527f4552433732313a2061646472657373207a65726f206973206e6f7420612076616044820152683634b21037bbb732b960b91b60648201526084016103c0565b506001600160a01b031660009081526003602052604090205490565b6060600180546102a2906110ee565b6105db338383610ad4565b5050565b6105e93383610786565b6106055760405162461bcd60e51b81526004016103c090611128565b61061184848484610ba2565b50505050565b6060610622826106b9565b600061063960408051602081019091526000815290565b905060008151116106595760405180602001604052806000815250610684565b8061066384610bd5565b604051602001610674929190611196565b6040516020818303038152906040525b9392505050565b6001600160a01b03918216600090815260056020908152604080832093909416825291909152205460ff1690565b6000818152600260205260409020546001600160a01b03166105385760405162461bcd60e51b8152602060048201526018602482015277115490cdcc8c4e881a5b9d985b1a59081d1bdad95b88125160421b60448201526064016103c0565b600081815260046020526040902080546001600160a01b0319166001600160a01b038416908117909155819061074d826104b2565b6001600160a01b03167f8c5be1e5ebec7d5bd14f71427d1e84f3dd0314c0f7b2291e5b200ac8c7c3b92560405160405180910390a45050565b600080610792836104b2565b9050806001600160a01b0316846001600160a01b031614806107b957506107b9818561068b565b806107dd5750836001600160a01b03166107d284610325565b6001600160a01b0316145b949350505050565b826001600160a01b03166107f8826104b2565b6001600160a01b03161461081e5760405162461bcd60e51b81526004016103c0906111c5565b6001600160a01b0382166108805760405162461bcd60e51b8152602060048201526024808201527f4552433732313a207472616e7366657220746f20746865207a65726f206164646044820152637265737360e01b60648201526084016103c0565b826001600160a01b0316610893826104b2565b6001600160a01b0316146108b95760405162461bcd60e51b81526004016103c0906111c5565b600081815260046020908152604080832080546001600160a01b03199081169091556001600160a01b0387811680865260038552838620805460001901905590871680865283862080546001019055868652600290945282852080549092168417909155905184937fddf252ad1be2c89b69c2b068fc378daa952ba7f163c4a11628f55a4df523b3ef91a4505050565b6001600160a01b03821661099f5760405162461bcd60e51b815260206004820181905260248201527f4552433732313a206d696e7420746f20746865207a65726f206164647265737360448201526064016103c0565b6000818152600260205260409020546001600160a01b031615610a045760405162461bcd60e51b815260206004820152601c60248201527f4552433732313a20746f6b656e20616c7265616479206d696e7465640000000060448201526064016103c0565b6000818152600260205260409020546001600160a01b031615610a695760405162461bcd60e51b815260206004820152601c60248201527f4552433732313a20746f6b656e20616c7265616479206d696e7465640000000060448201526064016103c0565b6001600160a01b038216600081815260036020908152604080832080546001019055848352600290915280822080546001600160a01b0319168417905551839291907fddf252ad1be2c89b69c2b068fc378daa952ba7f163c4a11628f55a4df523b3ef908290a45050565b816001600160a01b0316836001600160a01b031603610b355760405162461bcd60e51b815260206004820152601960248201527f4552433732313a20617070726f766520746f2063616c6c65720000000000000060448201526064016103c0565b6001600160a01b03838116600081815260056020908152604080832094871680845294825291829020805460ff191686151590811790915591519182527f17307eab39ab6107e8899845ad3d59bd9653f200f220920489ca2b5937696c31910160405180910390a3505050565b610bad8484846107e5565b610bb984848484610c68565b6106115760405162461bcd60e51b81526004016103c09061120a565b60606000610be283610d69565b600101905060008167ffffffffffffffff811115610c0257610c02610fc9565b6040519080825280601f01601f191660200182016040528015610c2c576020820181803683370190505b5090508181016020015b600019016f181899199a1a9b1b9c1cb0b131b232b360811b600a86061a8153600a8504945084610c3657509392505050565b60006001600160a01b0384163b15610d5e57604051630a85bd0160e11b81526001600160a01b0385169063150b7a0290610cac90339089908890889060040161125c565b6020604051808303816000875af1925050508015610ce7575060408051601f3d908101601f19168201909252610ce491810190611299565b60015b610d44573d808015610d15576040519150601f19603f3d011682016040523d82523d6000602084013e610d1a565b606091505b508051600003610d3c5760405162461bcd60e51b81526004016103c09061120a565b805181602001fd5b6001600160e01b031916630a85bd0160e11b1490506107dd565b506001949350505050565b60008072184f03e93ff9f4daa797ed6e38ed64bf6a1f0160401b8310610da85772184f03e93ff9f4daa797ed6e38ed64bf6a1f0160401b830492506040015b6d04ee2d6d415b85acef81000000008310610dd4576d04ee2d6d415b85acef8100000000830492506020015b662386f26fc100008310610df257662386f26fc10000830492506010015b6305f5e1008310610e0a576305f5e100830492506008015b6127108310610e1e57612710830492506004015b60648310610e30576064830492506002015b600a831061028d5760010192915050565b6001600160e01b03198116811461053857600080fd5b600060208284031215610e6957600080fd5b813561068481610e41565b60005b83811015610e8f578181015183820152602001610e77565b50506000910152565b60008151808452610eb0816020860160208601610e74565b601f01601f19169290920160200192915050565b6020815260006106846020830184610e98565b600060208284031215610ee957600080fd5b5035919050565b80356001600160a01b0381168114610f0757600080fd5b919050565b60008060408385031215610f1f57600080fd5b610f2883610ef0565b946020939093013593505050565b600080600060608486031215610f4b57600080fd5b610f5484610ef0565b9250610f6260208501610ef0565b9150604084013590509250925092565b600060208284031215610f8457600080fd5b61068482610ef0565b60008060408385031215610fa057600080fd5b610fa983610ef0565b915060208301358015158114610fbe57600080fd5b809150509250929050565b634e487b7160e01b600052604160045260246000fd5b60008060008060808587031215610ff557600080fd5b610ffe85610ef0565b935061100c60208601610ef0565b925060408501359150606085013567ffffffffffffffff8082111561103057600080fd5b818701915087601f83011261104457600080fd5b81358181111561105657611056610fc9565b604051601f8201601f19908116603f0116810190838211818310171561107e5761107e610fc9565b816040528281528a602084870101111561109757600080fd5b82602086016020830137600060208483010152809550505050505092959194509250565b600080604083850312156110ce57600080fd5b6110d783610ef0565b91506110e560208401610ef0565b90509250929050565b600181811c9082168061110257607f821691505b60208210810361112257634e487b7160e01b600052602260045260246000fd5b50919050565b6020808252602d908201527f4552433732313a2063616c6c6572206973206e6f7420746f6b656e206f776e6560408201526c1c881bdc88185c1c1c9bdd9959609a1b606082015260800190565b8082018082111561028d57634e487b7160e01b600052601160045260246000fd5b600083516111a8818460208801610e74565b8351908301906111bc818360208801610e74565b01949350505050565b60208082526025908201527f4552433732313a207472616e736665722066726f6d20696e636f72726563742060408201526437bbb732b960d91b606082015260800190565b60208082526032908201527f4552433732313a207472616e7366657220746f206e6f6e20455243373231526560408201527131b2b4bb32b91034b6b83632b6b2b73a32b960711b606082015260800190565b6001600160a01b038581168252841660208201526040810183905260806060820181905260009061128f90830184610e98565b9695505050505050565b6000602082840312156112ab57600080fd5b815161068481610e4156fea2646970667358221220c17b0b544d5170e40f76184446471502f8bd77ad7cb7fbd92b1de22c6465548664736f6c63430008110033",
    "linkReferences": {}
  },
  "methodIdentifiers": {
    "approve(address,uint256)": "095ea7b3",
    "balanceOf(address)": "70a08231",
    "getApproved(uint256)": "081812fc",
    "isApprovedForAll(address,address)": "e985e9c5",
    "mint(address)": "6a627842",
    "name()": "06fdde03",
    "ownerOf(uint256)": "6352211e",
    "safeTransferFrom(address,address,uint256)": "42842e0e",
    "safeTransferFrom(address,address,uint256,bytes)": "b88d4fde",
    "setApprovalForAll(address,bool)": "a22cb465",
    "supportsInterface(bytes4)": "01ffc9a7",
    "symbol()": "95d89b41",
    "tokenId()": "17d70f7c",
    "tokenURI(uint256)": "c87b56dd",
    "transferFrom(address,address,uint256)": "23b872dd"
  },
  "id": 39
}